:100000000C9442010C9473010C9473010C947301D1
:100010000C9473010C9473010C9473010C94730190
:100020000C9473010C9473010C9473010C94730180
:100030000C9473010C9473010C9473010C94730170
:100040000C9473010C9473010C9473010C94730160
:100050000C9473010C9473010C9473010C94D901EA
:100060000C9473010C947B050C9447060C9473015B
:100070000C9473010C9473010C9473010C94730130
:100080000C9473010C9473010C9473010C94730120
:100090000C94AE050C9486060C9473010C947301B9
:1000A0000C9473010C9473010C9473010C94730100
:1000B0000C9473010C9473010C9473010C947301F0
:1000C0000C9473010C9473010C9473010C94E1056E
:1000D0000C94C5060C9473010C9414060C9404073C
:1000E0000C947301C102C402B702BB02FB02C80236
:1000F000CC02D202D602DA02E002E402E802FB02FB
:10010000EE02F202F6020C94E4020C941F050C9429
:10011000CB070C94D6020C9414050C94C4020C94D6
:10012000C8020C94F4040C94DA020C94F6020C94B9
:10013000EE020C94E0020C94E8020C94CC020C94B5
:10014000F2020C94D2020C94B7020C9491030C941A
:10015000C8040C94C1020C94FB020C94D8040C94B7
:10016000BB020000090A02080B0C0D07060304017C
:10017000000000000000000000000000000000007F
:10018000000000000000000000000000000011104E
:100190000F00000000000000000000000000000050
:1001A00000000000000000000102102020080810DC
:1001B00020401020408002010201080402010102D7
:1001C00004081020408080402010080402018004B0
:1001D000020180402010080402010804020101020B
:1001E000040810204080010204081020408005050A
:1001F0000505070508080808020202020A0A08089D
:1002000004040404010101010101010103030303CA
:1002100003030303040707070C0C0C0C0C0C0C0C59
:100220000202020206060606060606060B0B0B0B6A
:100230000B0B0B0B000020002300260029002C00D4
:100240002F00320000010000030106010901000037
:100250002200250028002B002E003100340002016E
:100260000000050108010B01000021002400270007
:100270002A002D00300033000101000004010701B5
:100280000A01CB0711241FBECFEFD1E2DEBFCDBFE5
:1002900000E00CBF12E0A0E0B2E0E8E9F1E100E02C
:1002A0000BBF02C007900D92A231B107D9F724E02D
:1002B000A2E1B2E001C01D92AF3DB207E1F711E04B
:1002C000C2E4D1E000E006C021970109802FFE01C1
:1002D0000E94C208C134D10780E00807A9F70E9434
:1002E0008E010C949D080C940000CF930E9448024C
:1002F00040E855E260E070E08DE992E00E9443073B
:10030000C2E060E08C2F0E94FC0261E08C2F0E9412
:100310003803CF5FCE30A9F7CF9108950E947501C1
:1003200080E4C82E82E4D82E8FE0E82EF12C0E94C3
:1003300023024B015C0102E112E0C2E0D0E08C2F0D
:100340000E946803F8012481358182179307C1F068
:10035000958384834AE050E0BE018DE992E00E94DB
:100360008B0460E072E08DE992E00E94CE03F80118
:10037000648175814AE050E08DE992E00E94920428
:1003800021960E5F1F4FCE30D105C9F60E94230281
:10039000681979098A099B09A70196010E94A0089A
:1003A000BA01A9012AE030E08DE992E00E94B6048A
:1003B000BECF1F920F920FB60F9211242F933F932F
:1003C0008F939F93AF93BF9380912F0290913002B0
:1003D000A0913102B091320230912E0223E0230F1E
:1003E0002D3720F40196A11DB11D05C026E8230F6D
:1003F0000296A11DB11D20932E0280932F0290938F
:100400003002A0933102B093320280913302909176
:100410003402A0913502B09136020196A11DB11DA2
:100420008093330290933402A0933502B093360246
:10043000BF91AF919F918F913F912F910F900FBEE0
:100440000F901F9018953FB7F894809133029091C8
:100450003402A0913502B091360226B5A89B05C0A2
:100460002F3F19F00196A11DB11D3FBFBA2FA92F33
:10047000982F8827820F911DA11DB11DBC01CD01B0
:1004800042E0660F771F881F991F4A95D1F708959C
:10049000789484B5826084BD84B5816084BD85B55F
:1004A000826085BD85B5816085BDEEE6F0E0808126
:1004B00081608083E1E8F0E0108280818260808347
:1004C000808181608083E0E8F0E0808181608083CA
:1004D000E1EBF0E0808184608083E0EBF0E08081FC
:1004E00081608083E1E9F0E08081826080838081A7
:1004F00081608083E0E9F0E0808181608083E1EACF
:10050000F0E0808182608083808181608083E0EA86
:10051000F0E0808181608083E1E2F1E080818260AF
:100520008083808181608083E0E2F1E0808181606E
:100530008083EAE7F0E0808184608083808182604C
:100540008083808181608083808180688083109235
:10055000C100089590E0FC013197E131F10508F008
:100560004AC08827EE58FF4F8F4F0C94C2088091E5
:1005700080008F7703C0809180008F7D8093800002
:10058000089584B58F7702C084B58F7D84BD0895AA
:100590008091B0008F7703C08091B0008F7D8093F1
:1005A000B0000895809190008F7707C080919000EF
:1005B0008F7D03C080919000877F80939000089585
:1005C0008091A0008F7707C08091A0008F7D03C02D
:1005D0008091A000877F8093A000089580912001E2
:1005E0008F7707C0809120018F7D03C0809120010B
:1005F000877F809320010895CF93DF9390E0FC01E3
:10060000E855FE4F2491FC01E251FE4F849188236E
:1006100061F190E0880F991FFC01E859FD4FC591E9
:10062000D491FC01E25BFD4FA591B491611109C029
:100630009FB7F8948881209582238883EC912E239C
:100640000BC0623061F49FB7F8943881822F809597
:1006500083238883EC912E2B2C939FBF06C08FB7EA
:10066000F894E8812E2B28838FBFDF91CF910895D6
:100670001F93CF93DF93282F30E0F901EE59FE4FFF
:100680008491F901E855FE4FD491F901E251FE4FF2
:10069000C491CC23C9F0162F81110E94AA02EC2F1D
:1006A000F0E0EE0FFF1FE25BFD4FA591B4918FB715
:1006B000F894111105C09C91ED2FE095E92302C03B
:1006C000EC91ED2BEC938FBFDF91CF911F910895AB
:1006D000CF93DF93282F30E0F901EE59FE4F84913C
:1006E000F901E855FE4FD491F901E251FE4FC49152
:1006F000CC2391F081110E94AA02EC2FF0E0EE0FC2
:10070000FF1FEC5CFD4FA591B491EC91ED2381E0CE
:1007100090E021F480E002C080E090E0DF91CF9192
:100720000895CF92DF92EF92FF920F931F93CF9392
:10073000DF936C01EB017B01E40EF51E00E010E09D
:10074000CE15DF0561F06991D601ED91FC91019024
:10075000F081E02DC6011995080F191FF1CFC801CE
:10076000DF91CF911F910F91FF90EF90DF90CF908D
:1007700008956115710579F0FB0101900020E9F7FA
:100780003197AF01461B570BDC01ED91FC910280C4
:10079000F381E02D199480E090E008950C94B90362
:1007A000DC01ED91FC910190F081E02D19940F9303
:1007B0001F93CF93DF93EC016DE00E94D0038C0177
:1007C0006AE0CE010E94D003800F911FDF91CF918C
:1007D0001F910F9108958F929F92AF92BF92CF92E7
:1007E000DF92EF92FF920F931F93CF93DF93CDB7DA
:1007F000DEB7A1970FB6F894DEBF0FBECDBF6C0178
:10080000142FE52FCB01022F19A2223008F40AE0A1
:100810007E0121E2E20EF11C802E912CA12CB12C44
:10082000612F7E2FA50194010E94A008029F10193C
:10083000112481E0E81AF1081A3014F4105D01C0A7
:10084000195CF7011083122FE32FCA01232B242BED
:10085000252B31F7B701C6010E94B903A1960FB647
:10086000F894DEBF0FBECDBFDF91CF911F910F91E6
:10087000FF90EF90DF90CF90BF90AF909F908F90C0
:100880000895CF92DF92EF92FF920F931F93CF9331
:10089000DF93EC016A017B012115310579F4E881D0
:1008A000F9810190F081E02D642FDF91CF911F91AC
:1008B0000F91FF90EF90DF90CF9019942A3031057F
:1008C000E9F477FF1AC06DE20E94D0038C0144273F
:1008D0005527BA014C195D096E097F092AE0CE013E
:1008E0000E94EB03800F911FDF91CF911F910F9119
:1008F000FF90EF90DF90CF9008952AE0B701A60116
:10090000CE01DF91CF911F910F91FF90EF90DF907B
:10091000CF900C94EB039A01AB01770F660B770B2A
:100920000C9441040F931F93CF93DF93EC019A0132
:10093000AB01770F660B770B0E9441048C01CE014F
:100940000E94D703800F911FDF91CF911F910F91CC
:1009500008952115310541F4DC01ED91FC910190E0
:10096000F081E02D642F19940C94EB030F931F93E7
:10097000CF93DF93EC010E94A9048C01CE010E9469
:10098000D703800F911FDF91CF911F910F91089591
:10099000FC0124853585F901E05CFF4F8081918160
:1009A000329620813181821B930B8F739927089592
:1009B000DC011C96ED91FC911D97DF01A05CBF4FFF
:1009C0002D913C91119712968D919C91119728171A
:1009D000390739F08D919C91E80FF91F808190E0E3
:1009E00008958FEF9FEF0895FC01A485B585FD0163
:1009F000E05CFF4F20813181329680819181281700
:100A0000390779F080819181A80FB91F8C912081DD
:100A100031812F5F3F4F2F7333273183208390E045
:100A200008958FEF9FEF0895FC0181A1882329F09D
:100A3000A489B5898C9186FFFBCF11A208950F93ED
:100A40001F93CF93DF93FC01A685B7858D01005CD2
:100A50001F4FE8018881998101968F739927AD0115
:100A60004E5B5F4FEA012881398182179307D1F3EA
:100A7000E80128813981A20FB31F6C93A685B78541
:100A8000A05CBF4F11969C938E93A689B7892C9139
:100A900081E090E0078C02C0880F991F0A94E2F76A
:100AA000822B8C9381E081A30488F589E02D8081DD
:100AB0008064808381E090E0DF91CF911F910F915E
:100AC0000895FB01E05CFF4F208131812F5F3F4F94
:100AD0002F733327DB01AE5BBF4F4D915C91241721
:100AE000350741F040815181DB01A40FB51F8C9384
:100AF0003183208308951F920F920FB60F92112415
:100B00000BB60F922F933F934F935F936F937F9307
:100B10008F939F93AF93BF93EF93FF938091C00008
:100B200082FD07C08091C6006BE974E00E946105F8
:100B300002C08091C600FF91EF91BF91AF919F914C
:100B40008F917F916F915F914F913F912F910F9076
:100B50000BBE0F900FBE0F901F9018951F920F9213
:100B60000FB60F9211240BB60F922F933F934F9312
:100B70005F936F937F938F939F93AF93BF93EF9305
:100B8000FF938091C80082FD07C08091CE0063E191
:100B900074E00E94610502C08091CE00FF91EF9148
:100BA000BF91AF919F918F917F916F915F914F9185
:100BB0003F912F910F900BBE0F900FBE0F901F9083
:100BC00018951F920F920FB60F9211240BB60F9229
:100BD0002F933F934F935F936F937F938F939F9345
:100BE000AF93BF93EF93FF938091D00082FD07C036
:100BF0008091D6006BE873E00E94610502C080918D
:100C0000D600FF91EF91BF91AF919F918F917F910E
:100C10006F915F914F913F912F910F900BBE0F906D
:100C20000FBE0F901F9018951F920F920FB60F9244
:100C300011240BB60F922F933F934F935F936F93B3
:100C40007F938F939F93AF93BF93EF93FF93809185
:100C5000300182FD07C08091360163E073E00E949D
:100C6000610502C080913601FF91EF91BF91AF9174
:100C70009F918F917F916F915F914F913F912F91B4
:100C80000F900BBE0F900FBE0F901F9018951F92E4
:100C90000F920FB60F9211240BB60F922F933F9322
:100CA0008F939F93EF93FF93209197043091980433
:100CB0008091990490919A042817390731F4809112
:100CC000C1008F7D8093C10014C0E0919904F09120
:100CD0009A04E95AFB4F20818091990490919A04DB
:100CE00001968F73992790939A0480939904209387
:100CF000C600FF91EF919F918F913F912F910F909F
:100D00000BBE0F900FBE0F901F9018951F920F9261
:100D10000FB60F9211240BB60F922F933F938F9320
:100D20009F93EF93FF9320910F04309110048091D3
:100D30001104909112042817390731F48091C900E9
:100D40008F7D8093C90014C0E0911104F0911204CA
:100D5000E153FC4F2081809111049091120401967F
:100D60008F73992790931204809311042093CE00DF
:100D7000FF91EF919F918F913F912F910F900BBE1B
:100D80000F900FBE0F901F9018951F920F920FB6E5
:100D90000F9211240BB60F922F933F938F939F9333
:100DA000EF93FF932091870330918803809189030B
:100DB00090918A032817390731F48091D1008F7DF3
:100DC0008093D10014C0E0918903F0918A03E95B1C
:100DD000FC4F20818091890390918A0301968F7343
:100DE000992790938A03809389032093D600FF91DB
:100DF000EF919F918F913F912F910F900BBE0F908C
:100E00000FBE0F901F9018951F920F920FB60F9262
:100E100011240BB60F922F933F938F939F93EF93D1
:100E2000FF932091FF023091000380910103909184
:100E300002032817390731F4809131018F7D8093A7
:100E4000310114C0E0910103F0910203E154FD4F20
:100E50002081809101039091020301968F7399275D
:100E6000909302038093010320933601FF91EF9149
:100E70009F918F913F912F910F900BBE0F900FBEBE
:100E80000F901F901895CF92DF92EF92FF920F93E1
:100E90001F93CF93DF93EC016A017B014115514E03
:100EA0006105710509F1EC89FD8981E090E008A0F8
:100EB00002C0880F991F0A94E2F7808360E079E00E
:100EC0008DE390E0A70196010E94A00889019A0194
:100ED0000150110921093109369527951795079574
:100EE000980101151041A8F0EC89FD89108260E895
:100EF00074E88EE190E0A70196010E94A008DA0153
:100F0000C9010197A109B109B695A795979587954C
:100F10009C01E889F9893083EA89FB89208319A239
:100F2000EE89FF89408181E090E09C010C8C02C039
:100F3000220F331F0A94E2F7242B2083EE89FF89C6
:100F400040819C010D8C02C0220F331F0A94E2F7EE
:100F5000242B2083EE89FF8940819C010E8C02C0E6
:100F6000220F331F0A94E2F7242B2083EE89FF8996
:100F700020810F8C02C0880F991F0A94E2F7809598
:100F800082238083DF91CF911F910F91FF90EF908B
:100F9000DF90CF900895CF92DF92EF92FF92EDE92C
:100FA000F2E01382128288EEC82E83E0D82EE12C64
:100FB000F12CC482D582E682F78266E072E071830A
:100FC00060838BE994E09587848787E594E0978731
:100FD000868785EC90E0918B808B84EC90E0938BFE
:100FE000828B80EC90E0958B848B81EC90E0978BEA
:100FF000868B82EC90E0918F808F86EC90E0938FCF
:10100000828F44E0448F33E0358F27E0268F95E0D0
:10101000978F81E080A3EBE7F2E013821282C48213
:10102000D582E682F78271836083A3E1B4E0B5875D
:10103000A487AFECB3E0B787A687ADECB0E0B18B87
:10104000A08BACECB0E0B38BA28BA8ECB0E0B58B7E
:10105000A48BA9ECB0E0B78BA68BAAECB0E0B18F63
:10106000A08FAEECB0E0B38FA28F448F358F268F68
:10107000978F80A3E9E5F2E013821282C482D582C1
:10108000E682F78271836083ABE8B3E0B587A4871B
:10109000A7E4B3E0B787A687A5EDB0E0B18BA08B3E
:1010A000A4EDB0E0B38BA28BA0EDB0E0B58BA48B28
:1010B000A1EDB0E0B78BA68BA2EDB0E0B18FA08F11
:1010C000A6EDB0E0B38FA28F448F358F268F978F18
:1010D00080A3E7E3F2E013821282C482D582E68223
:1010E000F7827183608363E073E0758764876FEBD9
:1010F00072E07787668765E371E0718B608B64E3EC
:1011000071E0738B628B60E371E0758B648B61E3DC
:1011100071E0778B668B62E371E0718F608F66E3BD
:1011200071E0738F628F448F358F268F978F80A3E6
:10113000FF90EF90DF90CF900895F8940C94CA0838
:10114000A1E21A2EAA1BBB1BFD010DC0AA1FBB1FCB
:10115000EE1FFF1FA217B307E407F50720F0A21B3D
:10116000B30BE40BF50B661F771F881F991F1A94AA
:1011700069F760957095809590959B01AC01BD01D4
:10118000CF010895EE0FFF1F881F8BBF0790F691C8
:08119000E02D1994F894FFCF43
:101198003A00000000001F059103C804F404D804B5
:0211A80014052C
:00000001FF
