:100000000C9481000C94B2000C94B2000C94B200D9
:100010000C94B2000C94B2000C94B2000C94B20098
:100020000C94B2000C94B2000C94B2000C94B20088
:100030000C94B2000C94B2000C94B2000C94B20078
:100040000C94B2000C94B2000C94B2000C94B20068
:100050000C94B2000C94B2000C94B2000C94C70043
:100060000C94B2000C9490020C945C030C94B200BB
:100070000C94B2000C94B2000C94B2000C94B20038
:100080000C94B2000C94B2000C94B2000C94B20028
:100090000C94C3020C949B030C94B2000C94B20019
:1000A0000C94B2000C94B2000C94B2000C94B20008
:1000B0000C94B2000C94B2000C94B2000C94B200F8
:1000C0000C94B2000C94B2000C94B2000C94F602A2
:1000D0000C94DA030C94B2000C9429030C941904C8
:1000E0000C94B2000C9473010C94ED010C94DD019E
:1000F0000C9409020C9429020C9434020C94E00430
:10010000E00411241FBECFEFD1E2DEBFCDBF00E07F
:100110000CBF12E0A0E0B2E0E2ECFBE000E00BBFBD
:1001200002C007900D92AA31B107D9F724E0AAE1E5
:10013000B2E001C01D92AB3CB207E1F710E0C1E8AC
:10014000D0E000E006C021970109802FFE010E9447
:10015000D705C038D10780E00807A9F70E94BE0084
:100160000C94B2050C94000040E855E260E070E0A9
:1001700089E892E00E9458040C9411010E94B40096
:1001800060E072E089E892E00E94CB01F9CF1F9213
:100190000F920FB60F9211242F933F938F939F933B
:1001A000AF93BF9380911B0290911C02A0911D02FE
:1001B000B0911E0230911A0223E0230F2D3720F454
:1001C0000196A11DB11D05C026E8230F0296A11DB1
:1001D000B11D20931A0280931B0290931C02A093DE
:1001E0001D02B0931E0280911F0290912002A091E7
:1001F0002102B09122020196A11DB11D80931F0220
:1002000090932002A0932102B0932202BF91AF915C
:100210009F918F913F912F910F900FBE0F901F9044
:100220001895789484B5826084BD84B5816084BD5E
:1002300085B5826085BD85B5816085BDEEE6F0E05F
:10024000808181608083E1E8F0E0108280818260BB
:100250008083808181608083E0E8F0E0808181603C
:100260008083E1EBF0E0808184608083E0EBF0E06C
:10027000808181608083E1E9F0E080818260808319
:10028000808181608083E0E9F0E08081816080830B
:10029000E1EAF0E0808182608083808181608083F8
:1002A000E0EAF0E0808181608083E1E2F1E080813A
:1002B00082608083808181608083E0E2F1E08081E0
:1002C00081608083EAE7F0E08081846080838081C0
:1002D0008260808380818160808380818068808368
:1002E0001092C1000895CF92DF92EF92FF920F9388
:1002F0001F93CF93DF936C01EB017B01E40EF51E9E
:1003000000E010E0CE15DF0561F06991D601ED91B6
:10031000FC910190F081E02DC6011995080F191F7D
:10032000F1CFC801DF91CF911F910F91FF90EF9016
:10033000DF90CF9008956115710579F0FB01019070
:100340000020E9F73197AF01461B570BDC01ED9117
:10035000FC910280F381E02D199480E090E00895F3
:10036000DC01ED91FC910190F081E02D19940F9347
:100370001F93CF93DF93EC016DE00E94B0018C01DD
:100380006AE0CE010E94B001800F911FDF91CF91F2
:100390001F910F9108950F931F93CF93DF93EC015B
:1003A0000E949B018C01CE010E94B701800F911F1A
:1003B000DF91CF911F910F910895FC012485358520
:1003C000F901E05CFF4F808191813296208131817B
:1003D000821B930B8F7399270895DC011C96ED9176
:1003E000FC911D97DF01A05CBF4F2D913C911197AF
:1003F00012968D919C9111972817390739F08D919C
:100400009C91E80FF91F808190E008958FEF9FEF96
:100410000895FC01A485B585FD01E05CFF4F2081B6
:1004200031813296808191812817390779F0808156
:100430009181A80FB91F8C91208131812F5F3F4F8F
:100440002F7333273183208390E008958FEF9FEF40
:100450000895FC0181A1882329F0A489B5898C9194
:1004600086FFFBCF11A208950F931F93CF93DF93C5
:10047000FC01A685B7858D01005C1F4FE8018881CE
:10048000998101968F739927AD014E5B5F4FEA0109
:100490002881398182179307D1F3E80128813981B6
:1004A000A20FB31F6C93A685B785A05CBF4F1196B2
:1004B0009C938E93A689B7892C9181E090E0078C5C
:1004C00002C0880F991F0A94E2F7822B8C9381E077
:1004D00081A30488F589E02D80818064808381E098
:1004E00090E0DF91CF911F910F910895FB01E05CA7
:1004F000FF4F208131812F5F3F4F2F733327DB0167
:10050000AE5BBF4F4D915C912417350741F04081A0
:100510005181DB01A40FB51F8C9331832083089593
:100520001F920F920FB60F9211240BB60F922F93BA
:100530003F934F935F936F937F938F939F93AF936B
:10054000BF93EF93FF938091C00082FD07C080911D
:10055000C60067E874E00E94760202C08091C6007F
:10056000FF91EF91BF91AF919F918F917F916F918B
:100570005F914F913F912F910F900BBE0F900FBE47
:100580000F901F9018951F920F920FB60F92112483
:100590000BB60F922F933F934F935F936F937F937D
:1005A0008F939F93AF93BF93EF93FF938091C80076
:1005B00082FD07C08091CE006FEF73E00E9476024B
:1005C00002C08091CE00FF91EF91BF91AF919F91BA
:1005D0008F917F916F915F914F913F912F910F90EC
:1005E0000BBE0F900FBE0F901F9018951F920F9289
:1005F0000FB60F9211240BB60F922F933F934F9388
:100600005F936F937F938F939F93AF93BF93EF937A
:10061000FF938091D00082FD07C08091D60067E7EC
:1006200073E00E94760202C08091D600FF91EF91A4
:10063000BF91AF919F918F917F916F915F914F91FA
:100640003F912F910F900BBE0F900FBE0F901F90F8
:1006500018951F920F920FB60F9211240BB60F929E
:100660002F933F934F935F936F937F938F939F93BA
:10067000AF93BF93EF93FF938091300182FD07C04A
:10068000809136016FEE72E00E94760202C0809186
:100690003601FF91EF91BF91AF919F918F917F9123
:1006A0006F915F914F913F912F910F900BBE0F90E3
:1006B0000FBE0F901F9018951F920F920FB60F92BA
:1006C00011240BB60F922F933F938F939F93EF9329
:1006D000FF9320918304309184048091850490914C
:1006E00086042817390731F48091C1008F7D8093EB
:1006F000C10014C0E0918504F0918604ED5BFB4FCE
:100700002081809185049091860401968F739927AA
:1007100090938604809385042093C600FF91EF9107
:100720009F918F913F912F910F900BBE0F900FBE15
:100730000F901F9018951F920F920FB60F921124D1
:100740000BB60F922F933F938F939F93EF93FF934B
:100750002091FB033091FC038091FD039091FE03F7
:100760002817390731F48091C9008F7D8093C90023
:1007700014C0E091FD03F091FE03E554FC4F20818D
:100780008091FD039091FE0301968F7399279093BA
:10079000FE038093FD032093CE00FF91EF919F9184
:1007A0008F913F912F910F900BBE0F900FBE0F9026
:1007B0001F9018951F920F920FB60F9211240BB62F
:1007C0000F922F933F938F939F93EF93FF932091DB
:1007D0007303309174038091750390917603281709
:1007E000390731F48091D1008F7D8093D10014C0FE
:1007F000E0917503F0917603ED5CFC4F20818091D0
:1008000075039091760301968F73992790937603E1
:10081000809375032093D600FF91EF919F918F9164
:100820003F912F910F900BBE0F900FBE0F901F9016
:1008300018951F920F920FB60F9211240BB60F92BC
:100840002F933F938F939F93EF93FF932091EB020E
:100850003091EC028091ED029091EE022817390759
:1008600031F4809131018F7D8093310114C0E0918A
:10087000ED02F091EE02E555FD4F20818091ED02F1
:100880009091EE0201968F7399279093EE028093D8
:10089000ED0220933601FF91EF919F918F913F914F
:1008A0002F910F900BBE0F900FBE0F901F901895B9
:1008B000CF92DF92EF92FF920F931F93CF93DF932C
:1008C000EC016A017B014115514E6105710509F189
:1008D000EC89FD8981E090E008A002C0880F991F93
:1008E0000A94E2F7808360E079E08DE390E0A7016D
:1008F00096010E94B50589019A010150110921094B
:1009000031093695279517950795980101151041DE
:10091000A8F0EC89FD89108260E874E88EE190E02F
:10092000A70196010E94B505DA01C9010197A10945
:10093000B109B695A795979587959C01E889F9899E
:100940003083EA89FB89208319A2EE89FF894081DF
:1009500081E090E09C010C8C02C0220F331F0A94AE
:10096000E2F7242B2083EE89FF8940819C010D8CC6
:1009700002C0220F331F0A94E2F7242B2083EE8952
:10098000FF8940819C010E8C02C0220F331F0A9404
:10099000E2F7242B2083EE89FF8920810F8C02C08F
:1009A000880F991F0A94E2F7809582238083DF9154
:1009B000CF911F910F91FF90EF90DF90CF9008950E
:1009C000CF92DF92EF92FF92E9E8F2E01382128277
:1009D00088EEC82E83E0D82EE12CF12CC482D5827B
:1009E000E682F7826EE072E07183608387E894E0CC
:1009F0009587848783E494E09787868785EC90E0E9
:100A0000918B808B84EC90E0938B828B80EC90E0D8
:100A1000958B848B81EC90E0978B868B82EC90E0B9
:100A2000918F808F86EC90E0938F828F44E0448F8B
:100A300033E0358F27E0268F95E0978F81E080A304
:100A4000E7E6F2E013821282C482D582E682F78260
:100A500071836083AFEFB3E0B587A487ABEBB3E0FE
:100A6000B787A687ADECB0E0B18BA08BACECB0E063
:100A7000B38BA28BA8ECB0E0B58BA48BA9ECB0E053
:100A8000B78BA68BAAECB0E0B18FA08FAEECB0E034
:100A9000B38FA28F448F358F268F978F80A3E5E485
:100AA000F2E013821282C482D582E682F7827183D9
:100AB0006083A7E7B3E0B587A487A3E3B3E0B78774
:100AC000A687A5EDB0E0B18BA08BA4EDB0E0B38B11
:100AD000A28BA0EDB0E0B58BA48BA1EDB0E0B78BFD
:100AE000A68BA2EDB0E0B18FA08FA6EDB0E0B38FE2
:100AF000A28F448F358F268F978F80A3E3E2F2E099
:100B000013821282C482D582E682F7827183608367
:100B10006FEE72E0758764876BEA72E077876687AD
:100B200065E371E0718B608B64E371E0738B628BC2
:100B300060E371E0758B648B61E371E0778B668BAA
:100B400062E371E0718F608F66E371E0738F628F93
:100B5000448F358F268F978F80A3FF90EF90DF9083
:100B6000CF900895F8940C94DF05A1E21A2EAA1BE9
:100B7000BB1BFD010DC0AA1FBB1FEE1FFF1FA2174D
:100B8000B307E407F50720F0A21BB30BE40BF50B4A
:100B9000661F771F881F991F1A9469F760957095D3
:100BA000809590959B01AC01BD01CF010895EE0F9A
:100BB000FF1F881F8BBF0790F691E02D1994F894C2
:020BC000FFCF65
:100BC20031202D2D20696E666F0000000000340276
:0A0BD2007301DD010902ED012902A3
:00000001FF
