:100000000C9473010C94A4010C94A4010C94A4010D
:100010000C94A4010C94A4010C94A4010C94A401CC
:100020000C94A4010C94A4010C94A4010C94A401BC
:100030000C94A4010C94A4010C94A4010C94A401AC
:100040000C94A4010C94A4010C94A4010C94A4019C
:100050000C94A4010C94A4010C94A4010C948602A9
:100060000C94A4010C94C8060C9494070C94A4015D
:100070000C94A4010C94A4010C94A4010C94A4016C
:100080000C94A4010C94A4010C94A4010C94A4015C
:100090000C94FB060C94D3070C94A4010C94A401BB
:1000A0000C94A4010C94A4010C94A4010C94A4013C
:1000B0000C94A4010C94A4010C94A4010C94A4012C
:1000C0000C94A4010C94A4010C94A4010C942E078C
:1000D0000C9412080C94A4010C9461070C94510820
:1000E0000C94A401800385038A0394030D049E03EA
:1000F000A603AE03B803C203CC03DB03E5030D0480
:10010000EF03F90303042D043004230427046704D8
:10011000340438043E04420446044C04500454049D
:1001200067045A045E0462040C9446040C94180993
:100130000C9441060C948A030C9454040C945A04B5
:100140000C944C040C9438040C94FD040C945E0440
:100150000C9461060C943E040C9480030C9494035C
:100160000C94DB030C9415060C94CC030C94E5035F
:100170000C9425060C9427040C9467040C94230417
:100180000C9485030C942D040C9442040C940D04DF
:100190000C949E030C94A6030C946C060C945004CF
:1001A0000C94F9030C9430040C9462040C94AE0388
:1001B0000C94EF030C94C2030C94B8030C94340415
:1001C0000C9403040000090A02080B0C0D07060337
:1001D000040100000000000000000000000000001A
:1001E000000000000000000000000000000000000F
:1001F00011100F00000000000000000000000000CF
:100200000000000000000000000001021020200893
:100210000810204010204080020102010804020161
:1002200001020408102040808040201008040201D0
:100230008004020180402010080402010804020129
:1002400001020408102040800102040810204080B0
:1002500005050505070508080808020202020A0A42
:100260000808040404040101010101010101030360
:10027000030303030303040707070C0C0C0C0C0C0B
:100280000C0C0202020206060606060606060B0B08
:100290000B0B0B0B0B0B000020002300260029008A
:1002A0002C002F00320000010000030106010901AB
:1002B00000002200250028002B002E003100340011
:1002C00002010000050108010B01000021002400CB
:1002D00027002A002D003000330001010000040136
:1002E00007010A01180911241FBECFEFD1E2DEBFBA
:1002F000CDBF00E00CBF12E0A0E0B2E0E2E3F4E129
:1003000000E00BBF02C007900D92A032B107D9F7F1
:1003100024E0A0E2B2E001C01D92AD3DB207E1F7DA
:1003200011E0C3E7D1E000E006C021970109802F6A
:10033000FE010E940F0AC237D10780E00807A9F723
:100340000E947F020C94EA090C9400001F93CF9343
:10035000DF93C0E0D2E01881229660E0812F0E94F6
:10036000680460E070E0812F0E94570382E0C6308D
:10037000D80789F7DF91CF911F910895CF92DF922F
:10038000EF92FF920F931F93CF93DF931F921F92D1
:10039000CDB7DEB700E012E080E2C82E82E0D82EB2
:1003A000F801608171810E5F1F4F862F69837A8308
:1003B0000E9432037C01F6018081918169817A81FA
:1003C000E816F906B1F04AE050E08BE992E00E94AD
:1003D000F7056DE072E08BE992E00E943A054AE091
:1003E00050E0B7018BE992E00E94FE05F601F18230
:1003F000E082F2E0CF0ED11C86E2C81682E0D80679
:1004000079F60F900F90DF91CF911F910F91FF9090
:10041000EF90DF90CF9008951F93CF93DF93C6E0C6
:10042000D2E01881229660E0812F0E94680461E08A
:10043000812F0E94A40482E0CC30D80791F7DF918D
:10044000CF911F910895CF92DF92EF92FF920F9379
:100450001F93CF93DF931F921F92CDB7DEB706E0B5
:1004600012E086E2C82E82E0D82EF8016081718108
:100470000E5F1F4F862F69837A830E94D4047C010C
:10048000F6018081918169817A81E816F906B1F0DF
:100490004AE050E08BE992E00E94F7056DE072E0DF
:1004A0008BE992E00E943A054AE050E0B7018BE9FF
:1004B00092E00E94FE05F601F182E082F2E0CF0EAA
:1004C000D11C8CE2C81682E0D80679F60F900F9006
:1004D000DF91CF911F910F91FF90EF90DF90CF9020
:1004E00008950E94D00240E05BE460E070E08BE998
:1004F00092E00E9490080E940C020C94A6010E94B7
:1005000071020E9423020E94BE01FBCF1F920F9234
:100510000FB60F9211242F933F938F939F93AF9316
:10052000BF9380912D0290912E02A0912F02B09145
:10053000300230912C0223E0230F2D3720F4019656
:10054000A11DB11D05C026E8230F0296A11DB11DF6
:1005500020932C0280932D0290932E02A0932F02C1
:10056000B09330028091310290913202A091330217
:10057000B09134020196A11DB11D80933102909378
:100580003202A0933302B0933402BF91AF919F9196
:100590008F913F912F910F900FBE0F901F90189544
:1005A000789484B5826084BD84B5816084BD85B54E
:1005B000826085BD85B5816085BDEEE6F0E0808115
:1005C00081608083E1E8F0E0108280818260808336
:1005D000808181608083E0E8F0E0808181608083B9
:1005E000E1EBF0E0808184608083E0EBF0E08081EB
:1005F00081608083E1E9F0E0808182608083808196
:1006000081608083E0E9F0E0808181608083E1EABD
:10061000F0E0808182608083808181608083E0EA75
:10062000F0E0808181608083E1E2F1E0808182609E
:100630008083808181608083E0E2F1E0808181605D
:100640008083EAE7F0E0808184608083808182603B
:100650008083808181608083808180688083109224
:10066000C1000895863308F0865390917B00282FAF
:100670002870977F922B90937B00877020910C02BB
:1006800090E4299F90011124822B80937C0080911B
:100690007A00806480937A0080917A0086FDFCCF96
:1006A000809178002091790090E0922B08951F931B
:1006B000CF93DF93182FEB0161E00E94680420972D
:1006C00011F460E004C0CF3FD10539F461E0812F1F
:1006D000DF91CF911F910C94A404E12FF0E0EC5333
:1006E000FE4FE4914E2F50E0FA013197E131F105D0
:1006F00008F093C08827EE58FF4F8F4F0C940F0AD5
:1007000084B5806884BDC7BD8DC084B5806284BD5A
:10071000C8BD88C080918000806880938000D0939D
:100720008900C09388007EC08091800080628093A1
:100730008000D0938B00C0938A0074C08091B00079
:1007400080688093B000C093B3006CC08091B0000B
:1007500080628093B000C093B40064C08091900028
:10076000806880939000D0939900C09398005AC0FD
:1007700080919000806280939000D0939B00C09302
:100780009A0050C080919000886080939000D09330
:100790009D00C0939C0046C08091A000806880931B
:1007A000A0008091A0008F7B8093A000D093A9002F
:1007B000C093A80037C08091A00080628093A00001
:1007C000D093AB00C093AA002DC08091A000886098
:1007D0008093A000D093AD00C093AC0023C0809163
:1007E0002001806880932001D0932901C0932801C3
:1007F00019C080912001806280932001D0932B0149
:10080000C0932A010FC0809120018860809320014D
:10081000D0932D01C0932C0105C0C038D1050CF038
:1008200055CF4FCFDF91CF911F91089590E0FC01FC
:100830003197E131F10508F04AC08827ED57FF4FA5
:100840008F4F0C940F0A809180008F7703C08091A6
:1008500080008F7D80938000089584B58F7702C0DB
:1008600084B58F7D84BD08958091B0008F7703C0DB
:100870008091B0008F7D8093B000089580919000AA
:100880008F7707C0809190008F7D03C0809190008A
:10089000877F8093900008958091A0008F7707C094
:1008A0008091A0008F7D03C08091A000877F8093FE
:1008B000A0000895809120018F7707C080912001CA
:1008C0008F7D03C080912001877F80932001089550
:1008D000CF93DF9390E0FC01E65FFD4F2491FC0194
:1008E000E05BFD4F8491882361F190E0880F991FB0
:1008F000FC01E653FD4FC591D491FC01E055FD4F3D
:10090000A591B491611109C09FB7F8948881209591
:1009100082238883EC912E230BC0623061F49FB751
:10092000F8943881822F809583238883EC912E2B35
:100930002C939FBF06C08FB7F894E8812E2B288395
:100940008FBFDF91CF9108951F93CF93DF93282F0F
:1009500030E0F901EC53FE4F8491F901E65FFD4F61
:10096000D491F901E05BFD4FC491CC23C9F0162F5F
:1009700081110E941604EC2FF0E0EE0FFF1FE055EE
:10098000FD4FA591B4918FB7F894111105C09C91BA
:10099000ED2FE095E92302C0EC91ED2BEC938FBF96
:1009A000DF91CF911F910895CF93DF93282F30E0EF
:1009B000F901EC53FE4F8491F901E65FFD4FD491AC
:1009C000F901E05BFD4FC491CC2391F081110E94AD
:1009D0001604EC2FF0E0EE0FFF1FEA56FD4FA59135
:1009E000B491EC91ED2381E090E021F480E002C02D
:1009F00080E090E0DF91CF910895CF92DF92EF9267
:100A0000FF920F931F93CF93DF936C01EB017B0158
:100A1000E40EF51E00E010E0CE15DF0561F06991EF
:100A2000D601ED91FC910190F081E02DC601199560
:100A3000080F191FF1CFC801DF91CF911F910F91BE
:100A4000FF90EF90DF90CF9008956115710579F0D8
:100A5000FB0101900020E9F73197AF01461B570BCE
:100A6000DC01ED91FC910280F381E02D199480E08E
:100A700090E008950C942505DC01ED91FC91019026
:100A8000F081E02D19940F931F93CF93DF93EC0126
:100A90006DE00E943C058C016AE0CE010E943C059D
:100AA000800F911FDF91CF911F910F9108958F9229
:100AB0009F92AF92BF92CF92DF92EF92FF920F93ED
:100AC0001F93CF93DF93CDB7DEB7A1970FB6F894FE
:100AD000DEBF0FBECDBF6C01142FE52FCB01022F5F
:100AE00019A2223008F40AE07E0121E2E20EF11C94
:100AF000802E912CA12CB12C612F7E2FA501940169
:100B00000E94ED09029F1019112481E0E81AF108F2
:100B10001A3014F4105D01C0195CF7011083122F14
:100B2000E32FCA01232B242B252B31F7B701C60154
:100B30000E942505A1960FB6F894DEBF0FBECDBF6B
:100B4000DF91CF911F910F91FF90EF90DF90CF90A9
:100B5000BF90AF909F908F900895CF92DF92EF92C9
:100B6000FF920F931F93CF93DF93EC016A017B01F8
:100B70002115310579F4E881F9810190F081E02DAA
:100B8000642FDF91CF911F910F91FF90EF90DF9035
:100B9000CF9019942A303105E9F477FF1AC06DE23D
:100BA0000E943C058C0144275527BA014C195D0968
:100BB0006E097F092AE0CE010E945705800F911F20
:100BC000DF91CF911F910F91FF90EF90DF90CF9029
:100BD00008952AE0B701A601CE01DF91CF911F91C0
:100BE0000F91FF90EF90DF90CF900C9457059A01F2
:100BF000AB01770F660B770B0C94AD050F931F932A
:100C0000CF93DF93EC019A01AB01770F660B770B63
:100C10000E94AD058C01CE010E944305800F911FFB
:100C2000DF91CF911F910F910895FC0124853585A7
:100C3000F901E05CFF4F8081918132962081318102
:100C4000821B930B8F7399270895DC011C96ED91FD
:100C5000FC911D97DF01A05CBF4F2D913C91119736
:100C600012968D919C9111972817390739F08D9123
:100C70009C91E80FF91F808190E008958FEF9FEF1E
:100C80000895FC01A485B585FD01E05CFF4F20813E
:100C900031813296808191812817390779F08081DE
:100CA0009181A80FB91F8C91208131812F5F3F4F17
:100CB0002F7333273183208390E008958FEF9FEFC8
:100CC0000895FC0181A1882329F0A489B5898C911C
:100CD00086FFFBCF11A208950F931F93CF93DF934D
:100CE000FC01A685B7858D01005C1F4FE801888156
:100CF000998101968F739927AD014E5B5F4FEA0191
:100D00002881398182179307D1F3E801288139813D
:100D1000A20FB31F6C93A685B785A05CBF4F119639
:100D20009C938E93A689B7892C9181E090E0078CE3
:100D300002C0880F991F0A94E2F7822B8C9381E0FE
:100D400081A30488F589E02D80818064808381E01F
:100D500090E0DF91CF911F910F910895FB01E05C2E
:100D6000FF4F208131812F5F3F4F2F733327DB01EE
:100D7000AE5BBF4F4D915C912417350741F0408128
:100D80005181DB01A40FB51F8C933183208308951B
:100D90001F920F920FB60F9211240BB60F922F9342
:100DA0003F934F935F936F937F938F939F93AF93F3
:100DB000BF93EF93FF938091C00082FD07C08091A5
:100DC000C60069E974E00E94AE0602C08091C600C8
:100DD000FF91EF91BF91AF919F918F917F916F9113
:100DE0005F914F913F912F910F900BBE0F900FBECF
:100DF0000F901F9018951F920F920FB60F9211240B
:100E00000BB60F922F933F934F935F936F937F9304
:100E10008F939F93AF93BF93EF93FF938091C800FD
:100E200082FD07C08091CE0061E174E00E94AE06B1
:100E300002C08091CE00FF91EF91BF91AF919F9141
:100E40008F917F916F915F914F913F912F910F9073
:100E50000BBE0F900FBE0F901F9018951F920F9210
:100E60000FB60F9211240BB60F922F933F934F930F
:100E70005F936F937F938F939F93AF93BF93EF9302
:100E8000FF938091D00082FD07C08091D60069E871
:100E900073E00E94AE0602C08091D600FF91EF91F0
:100EA000BF91AF919F918F917F916F915F914F9182
:100EB0003F912F910F900BBE0F900FBE0F901F9080
:100EC00018951F920F920FB60F9211240BB60F9226
:100ED0002F933F934F935F936F937F938F939F9342
:100EE000AF93BF93EF93FF938091300182FD07C0D2
:100EF0008091360161E073E00E94AE0602C08091ED
:100F00003601FF91EF91BF91AF919F918F917F91AA
:100F10006F915F914F913F912F910F900BBE0F906A
:100F20000FBE0F901F9018951F920F920FB60F9241
:100F300011240BB60F922F933F938F939F93EF93B0
:100F4000FF9320919504309196048091970490919D
:100F500098042817390731F48091C1008F7D809360
:100F6000C10014C0E0919704F0919804EB5AFB4F34
:100F70002081809197049091980401968F7399270E
:100F800090939804809397042093C600FF91EF916B
:100F90009F918F913F912F910F900BBE0F900FBE9D
:100FA0000F901F9018951F920F920FB60F92112459
:100FB0000BB60F922F933F938F939F93EF93FF93D3
:100FC00020910D0430910E0480910F049091100433
:100FD0002817390731F48091C9008F7D8093C900AB
:100FE00014C0E0910F04F0911004E353FC4F2081F2
:100FF00080910F049091100401968F73992790931C
:10100000100480930F042093CE00FF91EF919F91E5
:101010008F913F912F910F900BBE0F900FBE0F90AD
:101020001F9018951F920F920FB60F9211240BB6B6
:101030000F922F933F938F939F93EF93FF93209162
:101040008503309186038091870390918803281748
:10105000390731F48091D1008F7D8093D10014C085
:10106000E0918703F0918803EB5BFC4F2081809136
:1010700087039091880301968F7399279093880333
:10108000809387032093D600FF91EF919F918F91DA
:101090003F912F910F900BBE0F900FBE0F901F909E
:1010A00018951F920F920FB60F9211240BB60F9244
:1010B0002F933F938F939F93EF93FF932091FD0284
:1010C0003091FE028091FF029091000328173907AA
:1010D00031F4809131018F7D8093310114C0E09112
:1010E000FF02F0910003E354FD4F20818091FF0245
:1010F0009091000301968F7399279093000380933A
:10110000FF0220933601FF91EF919F918F913F91C4
:101110002F910F900BBE0F900FBE0F901F90189540
:10112000CF92DF92EF92FF920F931F93CF93DF93B3
:10113000EC016A017B014115514E6105710509F110
:10114000EC89FD8981E090E008A002C0880F991F1A
:101150000A94E2F7808360E079E08DE390E0A701F4
:1011600096010E94ED0989019A0101501109210996
:101170003109369527951795079598010115104166
:10118000A8F0EC89FD89108260E874E88EE190E0B7
:10119000A70196010E94ED09DA01C9010197A10991
:1011A000B109B695A795979587959C01E889F98926
:1011B0003083EA89FB89208319A2EE89FF89408167
:1011C00081E090E09C010C8C02C0220F331F0A9436
:1011D000E2F7242B2083EE89FF8940819C010D8C4E
:1011E00002C0220F331F0A94E2F7242B2083EE89DA
:1011F000FF8940819C010E8C02C0220F331F0A948C
:10120000E2F7242B2083EE89FF8920810F8C02C016
:10121000880F991F0A94E2F7809582238083DF91DB
:10122000CF911F910F91FF90EF90DF90CF90089595
:10123000CF92DF92EF92FF92EBE9F2E013821282FB
:1012400088EEC82E83E0D82EE12CF12CC482D58202
:10125000E682F78263E172E07183608389E994E05A
:101260009587848785E594E09787868785EC90E06D
:10127000918B808B84EC90E0938B828B80EC90E060
:10128000958B848B81EC90E0978B868B82EC90E041
:10129000918F808F86EC90E0938F828F44E0448F13
:1012A00033E0358F27E0268F95E0978F81E080A38C
:1012B000E9E7F2E013821282C482D582E682F782E5
:1012C00071836083A1E1B4E0B587A487ADECB3E09E
:1012D000B787A687ADECB0E0B18BA08BACECB0E0EB
:1012E000B38BA28BA8ECB0E0B58BA48BA9ECB0E0DB
:1012F000B78BA68BAAECB0E0B18FA08FAEECB0E0BC
:10130000B38FA28F448F358F268F978F80A3E7E509
:10131000F2E013821282C482D582E682F782718360
:101320006083A9E8B3E0B587A487A5E4B3E0B787F5
:10133000A687A5EDB0E0B18BA08BA4EDB0E0B38B98
:10134000A28BA0EDB0E0B58BA48BA1EDB0E0B78B84
:10135000A68BA2EDB0E0B18FA08FA6EDB0E0B38F69
:10136000A28F448F358F268F978F80A3E5E3F2E01D
:1013700013821282C482D582E682F78271836083EF
:1013800061E073E0758764876DEB72E0778766874D
:1013900065E371E0718B608B64E371E0738B628B4A
:1013A00060E371E0758B648B61E371E0778B668B32
:1013B00062E371E0718F608F66E371E0738F628F1B
:1013C000448F358F268F978F80A3FF90EF90DF900B
:1013D000CF900895F8940C94170AA1E21A2EAA1B34
:1013E000BB1BFD010DC0AA1FBB1FEE1FFF1FA217D5
:1013F000B307E407F50720F0A21BB30BE40BF50BD2
:10140000661F771F881F991F1A9469F7609570955A
:10141000809590959B01AC01BD01CF010895EE0F21
:10142000FF1F881F8BBF0790F691E02D1994F89449
:02143000FFCFEC
:10143200080009000A00080009000A00013A000039
:101442000000006C06FD0415064106250661060033
:00000001FF
